{
  "contractName": "PropertyTransfer",
  "abi": [
    {
      "anonymous": false,
      "inputs": [
        {
          "indexed": true,
          "internalType": "address",
          "name": "_verifiedOwner",
          "type": "address"
        },
        {
          "indexed": true,
          "internalType": "uint256",
          "name": "_totalNoOfPropertyCurrentlyOwned",
          "type": "uint256"
        },
        {
          "indexed": false,
          "internalType": "string",
          "name": "_propertyName",
          "type": "string"
        },
        {
          "indexed": false,
          "internalType": "string",
          "name": "_msg",
          "type": "string"
        }
      ],
      "name": "PropertyAlloted",
      "type": "event"
    },
    {
      "anonymous": false,
      "inputs": [
        {
          "indexed": true,
          "internalType": "address",
          "name": "_from",
          "type": "address"
        },
        {
          "indexed": true,
          "internalType": "address",
          "name": "_to",
          "type": "address"
        },
        {
          "indexed": false,
          "internalType": "string",
          "name": "_propertyName",
          "type": "string"
        },
        {
          "indexed": false,
          "internalType": "string",
          "name": "_message",
          "type": "string"
        }
      ],
      "name": "PropertyTransferred",
      "type": "event"
    },
    {
      "constant": true,
      "inputs": [],
      "name": "developmentAuthority",
      "outputs": [
        {
          "internalType": "address",
          "name": "",
          "type": "address"
        }
      ],
      "payable": false,
      "stateMutability": "view",
      "type": "function"
    },
    {
      "constant": true,
      "inputs": [
        {
          "internalType": "address",
          "name": "",
          "type": "address"
        },
        {
          "internalType": "uint256",
          "name": "",
          "type": "uint256"
        }
      ],
      "name": "propertiesOwner",
      "outputs": [
        {
          "internalType": "string",
          "name": "name",
          "type": "string"
        },
        {
          "internalType": "bool",
          "name": "isSold",
          "type": "bool"
        }
      ],
      "payable": false,
      "stateMutability": "view",
      "type": "function"
    },
    {
      "constant": true,
      "inputs": [],
      "name": "totalNoOfProperty",
      "outputs": [
        {
          "internalType": "uint256",
          "name": "",
          "type": "uint256"
        }
      ],
      "payable": false,
      "stateMutability": "view",
      "type": "function"
    },
    {
      "constant": false,
      "inputs": [],
      "name": "propertyTransfer",
      "outputs": [],
      "payable": false,
      "stateMutability": "nonpayable",
      "type": "function"
    },
    {
      "constant": true,
      "inputs": [
        {
          "internalType": "address",
          "name": "_ownerAddress",
          "type": "address"
        }
      ],
      "name": "getPropertyCountOfAnyAddress",
      "outputs": [
        {
          "internalType": "uint256",
          "name": "",
          "type": "uint256"
        }
      ],
      "payable": false,
      "stateMutability": "view",
      "type": "function"
    },
    {
      "constant": false,
      "inputs": [
        {
          "internalType": "address",
          "name": "_verifiedOwner",
          "type": "address"
        },
        {
          "internalType": "string",
          "name": "_propertyName",
          "type": "string"
        }
      ],
      "name": "allotProperty",
      "outputs": [],
      "payable": false,
      "stateMutability": "nonpayable",
      "type": "function"
    },
    {
      "constant": false,
      "inputs": [
        {
          "internalType": "address",
          "name": "_checkOwnerAddress",
          "type": "address"
        },
        {
          "internalType": "string",
          "name": "_propertyName",
          "type": "string"
        }
      ],
      "name": "isOwner",
      "outputs": [
        {
          "internalType": "uint256",
          "name": "",
          "type": "uint256"
        }
      ],
      "payable": false,
      "stateMutability": "nonpayable",
      "type": "function"
    },
    {
      "constant": false,
      "inputs": [
        {
          "internalType": "string",
          "name": "s1",
          "type": "string"
        },
        {
          "internalType": "string",
          "name": "s2",
          "type": "string"
        }
      ],
      "name": "stringEquals",
      "outputs": [
        {
          "internalType": "bool",
          "name": "",
          "type": "bool"
        }
      ],
      "payable": false,
      "stateMutability": "nonpayable",
      "type": "function"
    },
    {
      "constant": false,
      "inputs": [
        {
          "internalType": "address",
          "name": "_to",
          "type": "address"
        },
        {
          "internalType": "string",
          "name": "_propertyName",
          "type": "string"
        }
      ],
      "name": "transferProperty",
      "outputs": [
        {
          "internalType": "bool",
          "name": "",
          "type": "bool"
        },
        {
          "internalType": "uint256",
          "name": "",
          "type": "uint256"
        }
      ],
      "payable": false,
      "stateMutability": "nonpayable",
      "type": "function"
    }
  ],
  "bytecode": "0x608060405234801561001057600080fd5b506111da806100206000396000f3fe608060405234801561001057600080fd5b50600436106100935760003560e01c80638f3c7382116100665780638f3c738214610295578063994febed14610367578063c084ae31146103bf578063cd37996414610409578063febc9dec146104f857610093565b806309c1b38514610098578063618149f414610173578063756494ce1461017d57806375ecfc1d14610277575b600080fd5b610171600480360360408110156100ae57600080fd5b81019080803573ffffffffffffffffffffffffffffffffffffffff169060200190929190803590602001906401000000008111156100eb57600080fd5b8201836020820111156100fd57600080fd5b8035906020019184600183028401116401000000008311171561011f57600080fd5b91908080601f016020809104026020016040519081016040528093929190818152602001838380828437600081840152601f19601f820116905080830192505050505050509192919290505050610662565b005b61017b610786565b005b6102566004803603604081101561019357600080fd5b81019080803573ffffffffffffffffffffffffffffffffffffffff169060200190929190803590602001906401000000008111156101d057600080fd5b8201836020820111156101e257600080fd5b8035906020019184600183028401116401000000008311171561020457600080fd5b91908080601f016020809104026020016040519081016040528093929190818152602001838380828437600081840152601f19601f8201169050808301925050505050505091929192905050506107c8565b60405180831515151581526020018281526020019250505060405180910390f35b61027f610c38565b6040518082815260200191505060405180910390f35b6102e1600480360360408110156102ab57600080fd5b81019080803573ffffffffffffffffffffffffffffffffffffffff16906020019092919080359060200190929190505050610c3e565b604051808060200183151515158152602001828103825284818151815260200191508051906020019080838360005b8381101561032b578082015181840152602081019050610310565b50505050905090810190601f1680156103585780820380516001836020036101000a031916815260200191505b50935050505060405180910390f35b6103a96004803603602081101561037d57600080fd5b81019080803573ffffffffffffffffffffffffffffffffffffffff169060200190929190505050610d14565b6040518082815260200191505060405180910390f35b6103c7610dee565b604051808273ffffffffffffffffffffffffffffffffffffffff1673ffffffffffffffffffffffffffffffffffffffff16815260200191505060405180910390f35b6104e26004803603604081101561041f57600080fd5b81019080803573ffffffffffffffffffffffffffffffffffffffff1690602001909291908035906020019064010000000081111561045c57600080fd5b82018360208201111561046e57600080fd5b8035906020019184600183028401116401000000008311171561049057600080fd5b91908080601f016020809104026020016040519081016040528093929190818152602001838380828437600081840152601f19601f820116905080830192505050505050509192919290505050610e13565b6040518082815260200191505060405180910390f35b6106486004803603604081101561050e57600080fd5b810190808035906020019064010000000081111561052b57600080fd5b82018360208201111561053d57600080fd5b8035906020019184600183028401116401000000008311171561055f57600080fd5b91908080601f016020809104026020016040519081016040528093929190818152602001838380828437600081840152601f19601f820116905080830192505050505050509192919290803590602001906401000000008111156105c257600080fd5b8201836020820111156105d457600080fd5b803590602001918460018302840111640100000000831117156105f657600080fd5b91908080601f016020809104026020016040519081016040528093929190818152602001838380828437600081840152601f19601f820116905080830192505050505050509192919290505050611011565b604051808215151515815260200191505060405180910390f35b6000809054906101000a900473ffffffffffffffffffffffffffffffffffffffff1673ffffffffffffffffffffffffffffffffffffffff163373ffffffffffffffffffffffffffffffffffffffff16146106bb57600080fd5b80600260008473ffffffffffffffffffffffffffffffffffffffff1673ffffffffffffffffffffffffffffffffffffffff1681526020019081526020016000206000600360008673ffffffffffffffffffffffffffffffffffffffff1673ffffffffffffffffffffffffffffffffffffffff1681526020019081526020016000206000815480929190600101919050558152602001908152602001600020600001908051906020019061076f929190611100565b506001600081548092919060010191905055505050565b336000806101000a81548173ffffffffffffffffffffffffffffffffffffffff021916908373ffffffffffffffffffffffffffffffffffffffff160217905550565b60008060006107d73385610e13565b905060006201869f8214158015610852575060001515600260003373ffffffffffffffffffffffffffffffffffffffff1673ffffffffffffffffffffffffffffffffffffffff168152602001908152602001600020600084815260200190815260200160002060010160009054906101000a900460ff161515145b15610b21576001600260003373ffffffffffffffffffffffffffffffffffffffff1673ffffffffffffffffffffffffffffffffffffffff168152602001908152602001600020600084815260200190815260200160002060010160006101000a81548160ff0219169083151502179055506040518060400160405280600481526020017f536f6c6400000000000000000000000000000000000000000000000000000000815250600260003373ffffffffffffffffffffffffffffffffffffffff1673ffffffffffffffffffffffffffffffffffffffff1681526020019081526020016000206000848152602001908152602001600020600001908051906020019061095f929190611100565b5084600260008873ffffffffffffffffffffffffffffffffffffffff1673ffffffffffffffffffffffffffffffffffffffff1681526020019081526020016000206000600360008a73ffffffffffffffffffffffffffffffffffffffff1673ffffffffffffffffffffffffffffffffffffffff16815260200190815260200160002060008154809291906001019190505581526020019081526020016000206000019080519060200190610a14929190611100565b50600190508573ffffffffffffffffffffffffffffffffffffffff163373ffffffffffffffffffffffffffffffffffffffff167fc414f0e42b09c2b853f504e54993178a1a6d895a5b3ef2c51a152ba812eb02c087604051808060200180602001838103835284818151815260200191508051906020019080838360005b83811015610aad578082015181840152602081019050610a92565b50505050905090810190601f168015610ada5780820380516001836020036101000a031916815260200191505b50838103825260168152602001807f4f776e657220686173206265656e206368616e67656400000000000000000000815250602001935050505060405180910390a3610c29565b600090508573ffffffffffffffffffffffffffffffffffffffff163373ffffffffffffffffffffffffffffffffffffffff167fc414f0e42b09c2b853f504e54993178a1a6d895a5b3ef2c51a152ba812eb02c087604051808060200180602001838103835284818151815260200191508051906020019080838360005b83811015610bb9578082015181840152602081019050610b9e565b50505050905090810190601f168015610be65780820380516001836020036101000a031916815260200191505b508381038252601e8152602001807f4f776e657220646f65736e74206f776e207468652070726f7065727479200000815250602001935050505060405180910390a35b80829350935050509250929050565b60015481565b600260205281600052604060002060205280600052604060002060009150915050806000018054600181600116156101000203166002900480601f016020809104026020016040519081016040528092919081815260200182805460018160011615610100020316600290048015610cf75780601f10610ccc57610100808354040283529160200191610cf7565b820191906000526020600020905b815481529060010190602001808311610cda57829003601f168201915b5050505050908060010160009054906101000a900460ff16905082565b600080600090506000809050600360008573ffffffffffffffffffffffffffffffffffffffff1673ffffffffffffffffffffffffffffffffffffffff16815260200190815260200160002054811015610de65760011515600260008673ffffffffffffffffffffffffffffffffffffffff1673ffffffffffffffffffffffffffffffffffffffff168152602001908152602001600020600083815260200190815260200160002060010160009054906101000a900460ff16151514610ddc5781806001019250505b8192505050610de9565b50505b919050565b6000809054906101000a900473ffffffffffffffffffffffffffffffffffffffff1681565b60008060008091505b600360008673ffffffffffffffffffffffffffffffffffffffff1673ffffffffffffffffffffffffffffffffffffffff16815260200190815260200160002054821015610feb5760011515600260008773ffffffffffffffffffffffffffffffffffffffff1673ffffffffffffffffffffffffffffffffffffffff168152602001908152602001600020600084815260200190815260200160002060010160009054906101000a900460ff1615151415610ed557610feb565b610fca600260008773ffffffffffffffffffffffffffffffffffffffff1673ffffffffffffffffffffffffffffffffffffffff16815260200190815260200160002060008481526020019081526020016000206000018054600181600116156101000203166002900480601f016020809104026020016040519081016040528092919081815260200182805460018160011615610100020316600290048015610fbf5780601f10610f9457610100808354040283529160200191610fbf565b820191906000526020600020905b815481529060010190602001808311610fa257829003601f168201915b505050505085611011565b9050600115158115151415610fde57610feb565b8180600101925050610e1c565b60011515811515141561100257819250505061100b565b6201869f925050505b92915050565b6000816040516020018082805190602001908083835b6020831061104a5780518252602082019150602081019050602083039250611027565b6001836020036101000a03801982511681845116808217855250505050505090500191505060405160208183030381529060405280519060200120836040516020018082805190602001908083835b602083106110bc5780518252602082019150602081019050602083039250611099565b6001836020036101000a0380198251168184511680821785525050505050509050019150506040516020818303038152906040528051906020012014905092915050565b828054600181600116156101000203166002900490600052602060002090601f016020900481019282601f1061114157805160ff191683800117855561116f565b8280016001018555821561116f579182015b8281111561116e578251825591602001919060010190611153565b5b50905061117c9190611180565b5090565b6111a291905b8082111561119e576000816000905550600101611186565b5090565b9056fea265627a7a723158200fe037818e0981744306eb515a5cea22a64f2504051b41077a73e25edbcc726164736f6c63430005100032",
  "source": "pragma solidity >=0.4.22 <0.9.0;\r\n\r\ncontract PropertyTransfer {\r\n    address public developmentAuthority;\r\n    uint public totalNoOfProperty;\r\n\r\n    function propertyTransfer() public{\r\n        developmentAuthority = msg.sender;\r\n    }\r\n\r\n    modifier onlyOwner(){\r\n        require(msg.sender == developmentAuthority);\r\n        _;\r\n    }\r\n\r\n    struct Property {\r\n        string name;\r\n        bool isSold;\r\n    }\r\n\r\n    mapping(address=>mapping(uint256=>Property)) public propertiesOwner;\r\n    mapping(address=>uint256) individualCountOfPropertyPerOwner;\r\n\r\n    event PropertyAlloted (address indexed _verifiedOwner, uint256 indexed _totalNoOfPropertyCurrentlyOwned, string _propertyName, string _msg);\r\n    event PropertyTransferred ( address indexed _from, address indexed _to, string _propertyName, string _message);\r\n\r\n    function getPropertyCountOfAnyAddress(address _ownerAddress) public view returns(uint256)\r\n    {\r\n        uint count = 0;\r\n        for(uint i=0; i< individualCountOfPropertyPerOwner[_ownerAddress]; i++)\r\n        {\r\n            if(propertiesOwner[_ownerAddress][i].isSold != true)\r\n            {\r\n                count++;\r\n\r\n            }\r\n            return count;\r\n        }\r\n\r\n    }\r\n\r\n    function allotProperty(address _verifiedOwner, string memory _propertyName) public onlyOwner \r\n    {\r\n        propertiesOwner[_verifiedOwner][individualCountOfPropertyPerOwner[_verifiedOwner]++].name = _propertyName;\r\n        totalNoOfProperty++;\r\n\r\n        //emit PropertyAlloted(_verifiedOwner, individualCountOfPropertyPerOwner[_verifiedOwner], _propertyName, \"Property Alloted successfully\");   \r\n    }\r\n\r\n    function isOwner(address _checkOwnerAddress, string memory _propertyName) public returns(uint)\r\n    {\r\n\r\n        uint i;\r\n        bool flag;\r\n        for (i=0; i < individualCountOfPropertyPerOwner[_checkOwnerAddress]; i++)\r\n        {\r\n            if(propertiesOwner[_checkOwnerAddress][i].isSold == true)\r\n            {\r\n                break;\r\n            }\r\n            flag = stringEquals(propertiesOwner[_checkOwnerAddress][i].name, _propertyName);\r\n            if(flag == true)\r\n            {\r\n                break;\r\n            }\r\n        }\r\n        if(flag == true)\r\n        {\r\n            return i;\r\n        }\r\n        else\r\n        {\r\n            return 99999;\r\n        }\r\n        \r\n    }\r\n\r\n    function stringEquals(string memory s1, string memory s2) public returns(bool)\r\n    {\r\n        return (keccak256(abi.encodePacked((s1))) == keccak256(abi.encodePacked((s2))));\r\n    }\r\n\r\n    function transferProperty(address _to, string memory _propertyName) public returns (bool, uint)\r\n    {\r\n        uint256 checkOwner = isOwner(msg.sender, _propertyName);\r\n        bool flag;\r\n        if(checkOwner != 99999 && propertiesOwner[msg.sender][checkOwner].isSold == false)\r\n        {\r\n            propertiesOwner[msg.sender][checkOwner].isSold = true;\r\n            propertiesOwner[msg.sender][checkOwner].name = \"Sold\";\r\n\r\n\r\n            propertiesOwner[_to][individualCountOfPropertyPerOwner[_to]++].name = _propertyName;\r\n\r\n            flag = true;\r\n            emit PropertyTransferred(msg.sender, _to, _propertyName, \"Owner has been changed\");\r\n        }\r\n        else{\r\n            flag = false;\r\n            emit PropertyTransferred(msg.sender, _to, _propertyName, \"Owner doesnt own the property \");\r\n        }\r\n\r\n        return(flag, checkOwner);\r\n    }\r\n\r\n}",
  "sourcePath": "D:\\distributeledger\\PropertyTransfer\\contracts\\PropertyTransfer.sol",
  "compiler": {
    "name": "solc",
    "version": "0.5.16+commit.9c3226ce.Emscripten.clang"
  },
  "schemaVersion": "3.4.3",
  "updatedAt": "2021-10-03T10:49:37.839Z",
  "networkType": "ethereum",
  "devdoc": {
    "methods": {}
  },
  "userdoc": {
    "methods": {}
  }
}